:1001A4003F065B4F666D7D077F6F010204081020D8
:0101B400004A
:1001B500758CA4758AA4438902D28CD2A9D2AF22A8
:1001C500758DA4758BA4438922D28ED2ABD2AF2272
:0A013B00E50D9001AE93FCC290FFA9
:10014500750E0AE4FEEF30E704D2918002C291EF0A
:0B01550025E0FFD292C2920EBE08EA25
:01016000227C
:07000300EF75F00A84FF22F3
:0A01D500EF75F00A84ADF0AF0522CB
:06001E008F08AE03AB05E4
:10002400AD091200038F09AF03AD0B1200038F0B50
:10003400AF06AD0C1200038F0CAD0AAF081201D548
:100044008F0AAF03AD011201D5A907AF06AD0212A5
:1000540001D5AA07E50D14602114602E14603B1429
:1000640060481460552405706DE50C9001A493F468
:10007400F50C12013BAF0C0200D5EA9001A493F4F5
:100084006480FA12013BAF028047E50B9001A49310
:10009400F4F50B12013BAF0B8037E99001A493F404
:1000A4006480F912013BAF018027E5099001A49314
:1000B400F4F50912013BAF098017E50A9001A493F6
:1000C400F4F50AE50D9001AE93C290FF120145AF1D
:1000D4000A120145D290050DE50DD394054003E4C1
:0200E400F50D18
:0100E60022F7
:1000E7000510E510D3943B4005E4F5100511E51123
:1000F700D3943B4007E4F511F510050FE50FD394B2
:0B010700174007E4F50FF511F510227A
:03000B00020112DD
:10011200C0E0C0F0C083C082C0D075D000C28DD50F
:10012200120CAB0FAD11AF1012001E75120AD0D017
:09013200D082D083D0F0D0E0327D
:03001B000201617E
:10016100C0E0C0D0C28FE514151470021513E51458
:10017100451370091200E7751327751410D0D0D0FC
:02018100E0326A
:1001830075120A7513277514104390F9D2BBC2B9BF
:100193001201B51201C520A0FDC28C0511D28C80BD
:0101A300F566
:0300000002000EED
:0C000E00787FE4F6D8FD758114020183B0
:00000001FF
